:020000040800F2
:1000000010040020D50000083D0200083B02000853
:1000100000000000000000000000000000000000E0
:10002000000000000000000000000000650800085B
:10003000000000000000000019030008A50A0008E5
:10004000E7000008E700000819050008E7000008BD
:10005000E700000815010008E7000008E7000008B5
:10006000E7000008E7000008E7000008E7000008D4
:10007000E7000008E7000008E7000008E7000008C4
:10008000E7000008E700000800000000E7000008A3
:10009000E7000008E7000008E7000008E7000008A4
:1000A000E7000008E7000008E7000008E700000894
:1000B000E700000800000000E70000080000000062
:1000C0000348854600F014F800480047290B000853
:1000D000100400200448804704480047FEE7FEE77C
:1000E000FEE7FEE7FEE7FEE7A90A0008C1000008F8
:1000F000064C0125064E05E0E36807CC2B430C3C7B
:1001000098471034B442F7D3FFF7DEFF380C0008ED
:10011000580C000810B5012000F00CF8002802D09F
:10012000012000F001F810BD01494861704700004E
:1001300000040140054A01461368002052690B4043
:100140000A4202D0002B00D0012070470004014079
:1001500010B5837918490268002B26D00B689343A9
:100160000B604A6803689A434A6002795218136820
:100170000468234313608A6803689A438A60CA68E4
:1001800003689A43CA604279102A05D051180A6858
:10019000006802430A6010BD8A6803681A438A60D7
:1001A000CA6800680243CA6010BD0079401801683F
:1001B0009143016010BD000000040140F0B5002231
:1001C000012423460D6893401D409D422AD10D799C
:1001D000012D01D0022D12D1876855000326AE40B3
:1001E000B74387604E79AE4085682E438660858828
:1001F0009D43858085888B7993401D438580066863
:1002000055000323AB409E4306600E790768AE405D
:100210003E430660C6689E43C660CB79AB40C56866
:100220002B43C360521C102ACBD3F0BD0246128A66
:1002300000200A4200D001207047FEE7704700000E
:1002400030B5837801210278002B15D094080E4B2D
:10025000A400E41823689207D50EFF22AA40934316
:1002600042789207120EAA401A4322600078C00614
:10027000C00E8140054804E0D006C00E814003480E
:100280008030016030BD000000E400E000E100E0EB
:1002900004498A150028086801D0104300E0904303
:1002A00008607047007000400748026804210A4354
:1002B0000260026802231A430260044802690A438A
:1002C000026130BF704700000070004000ED00E0A8
:1002D000094B1A689208920002431A6007480369A2
:1002E000042213430361012904D020BF0169914313
:1002F0000161704730BFF9E70070004000ED00E099
:10030000044A0029516801D0014300E08143516053
:10031000704700000070004070470000044A002948
:10032000516901D0014300E08143516170470000F1
:1003300000100240044A0029D16901D0014300E0C5
:100340008143D1617047000000100240044A002937
:10035000916901D0014300E0814391617047000041
:10036000001002400122054912040028086A01D049
:10037000104300E090430862704700000010024004
:10038000034600200A495A090CD0012A0CD0022A3F
:100390000CD0496BDA06D20E012393400B4200D0F9
:1003A000012070470968F5E7096AF3E7496AF1E750
:1003B0000010024005490028486A02D0012210437B
:1003C00001E0400840004862704700000010024011
:1003D00001220549D2030028086A01D0104300E039
:1003E00090430862704700000010024002490A6A08
:1003F00002430A62704700000010024018B5002254
:100400000092114ACA235362532353620029916810
:1004100002D00143916012E081439160000A012300
:100420009B03D168009C0140641C00949C4201D055
:100430000029F6D0D168014201D1002000E001205E
:10044000FF21516218BD00000028004001090A2266
:1004500000075143000F4018C0B27047002103E06D
:10046000491C0A38C9B2C0B20A28F9D20907090ED4
:100470000843704700098021084380B2C243034803
:10048000C3680B401A43C260704700000028004058
:1004900018B5002000900C48C168490612D400210C
:1004A000C943C16040220314C168009C1140641C10
:1004B00000949C4201D00029F6D0C068400601D4C7
:1004C000002018BD012018BD002800400248C16866
:1004D00080229143C16070470028004070B50D49EB
:1004E00000220B6804210B4C0B40403CA168860C99
:1004F0000546F540ED0B1D400140E3682943000926
:100500000340002903D01804000C00D0012210463B
:1005100070BD00004028004010B50124240320468F
:10052000FFF7DCFF002808D0012000F01FF920466B
:10053000FFF7A0FF6001FFF7F7FD10BD30B50D4AD2
:10054000CA2353625323536204250446094BAC4328
:10055000403328400029916804D0214391601968F4
:10056000014303E0A1439160196881431960FF20B2
:10057000506230BD0028004070B5054600260F4C83
:10058000CA20606253206062FFF782FF002811D00A
:10059000A06840218843A060A06829680843A06043
:1005A000A86820612069A988090408432061FFF731
:1005B0008DFF0126FF206062304670BD002800409C
:1005C00070B500211F4E0028B068144620D04006A8
:1005D00035D52078FFF73AFF207BFFF737FF2078EB
:1005E000A578000405436078E17800020904084317
:1005F0000543207B00060543A0680543606805436A
:10060000CA20706253207062F561FF20706270BD75
:10061000400600D4E1702078FFF720FF05046078E1
:10062000FFF71CFF00020543A078FFF717FF054303
:10063000E07800040543207BFFF710FFDAE7E17064
:10064000CAE7000000280040F8B502460027224D06
:100650000C46002A0978AA68384605D052062FD5DC
:100660000846FFF7F3FE2CE0520600D4E07008467F
:10067000FFF7F4FE06046078FFF7F0FE0002064381
:10068000A078FFF7EBFE0643E07800040643CA209B
:10069000686253206862FFF7FBFE00280CD00F4809
:1006A00006402E60FFF712FFA868800603D400F012
:1006B00017F8002800D00127FF2068623846F8BDEF
:1006C000E0702078A678000406436078E1780002A4
:1006D00009040843DAE70000002800407F7F7F001C
:1006E00018B50020114900908868800601D50120C6
:1006F00018BDCA20486253204862C868A0229043AF
:10070000C86020229302C868009C1040641C0094BA
:100710009C4201D00028F6D0C868800601D501208F
:1007200000E00020FF224A6218BD000000280040BF
:100730007CB5044685000B4801214059FFF7EEFDCA
:10074000084960000A39085A00900120694608717A
:1007500000208871C8710320487103484059FFF791
:100760002DFD7CBD300C000808000020034A41002C
:10077000515A034A8000105801857047260C000822
:1007800008000020034A4100515A034A80001058D3
:1007900081617047260C000808000020044982008F
:1007A00089588A8A034B4000185A42408A8270470F
:1007B00008000020260C000810B5044A4100515AD8
:1007C000034A80001058FFF731FD10BD1C0C0008D3
:1007D00004000020F3B505468700204885B0C059C5
:1007E0000121FFF79BFD01210846FFF7AFFD002621
:1007F00068460673C67319486C001038005B029097
:10080000174802A9C059FFF7D9FC0698012823D13F
:1008100012480A38015D801E005D00F025F80F487F
:100820000E38005B009068460671002D01D008204C
:1008300000E00C2069464871012568468571FFF784
:1008400087FC06480838015D68460174032141743D
:10085000857404A8FFF7F4FC07B0F0BD2C0C000869
:1008600004000020704700008A07130F10B50F2204
:100870009A408C080549A40061188C6894438C60E8
:100880008A68984002438A6010BD00000000014061
:1008900008B50020009014491120086013484168F1
:1008A00041604168416041683F22120491434160C8
:1008B00041680522D20411434160016801221206F9
:1008C0001143016001688901FCD5416889088900EC
:1008D0004160416802221143416041680907890F64
:1008E0000229FAD108BD0000002002400010024099
:1008F0003EB52F2500246D04012128460294FFF700
:100900000DFD03216A4611715171D4711048009098
:1009100069461048FFF752FC69460F48FFF74EFC46
:1009200069460E48FFF74AFC09206946C006FFF7F2
:1009300045FC69460A48FFF741FC00212846FFF7BD
:10094000EDFC01210020FFF745FF30BF3EBD000058
:10095000FFFF000000080048000C00480014004899
:100960000004004810B501210802FFF7C9FCFFF799
:100970009BFC10BD70B58EB0002401200D94FFF7D4
:1009800087FC0120FFF716FD4120FFF7F9FC002846
:10099000FAD001204002FFF729FD0120FFF718FDE2
:1009A000FFF79EFE2F256D0401212846FFF7B6FCB8
:1009B0000321684601714171C47135480090694650
:1009C0003448FFF7FBFB69463348FFF7F7FB6946FE
:1009D0003248FFF7F3FB09206946C006FFF7EEFB3C
:1009E00069462F48FFF7EAFB00212846FFF796FCEF
:1009F0007F200B90FF2039300C900A940AA8FFF753
:100A0000BBFD002842D001256D042846FFF78CFB72
:100A1000069568460477082141770125857706A861
:100A2000FFF796FB022108A801714471857109A89E
:100A3000FFF706FC6846C472057244720521817294
:100A400031210175C807C60D039002AA31460494EE
:100A50000120FFF7B5FD01213046FFF7CFFC012152
:100A60000E033046FFF76AFD08A8C4700570447095
:100A7000847001460120FFF7E7FD3046FFF7FAFCDE
:100A800001210846FFF724FC0EB070BDFEE7000010
:100A9000FFFF000000080048000C00480014004858
:100AA000000400487047000010B514480168012296
:100AB000114301604168124A114041600168114AC6
:100AC0001140016001680122920491430160416874
:100AD0003F22120491434160C16A09090901C162C0
:100AE000016BFF22543291430163416B4908490075
:100AF000416300218160FFF7CBFE10BD0010024072
:100B00000CB8FFF8FFFFF6FE02E008C8121F08C18C
:100B1000002AFAD170477047002001E001C1121F7E
:100B2000002AFBD1704700007CB5002500952946BE
:100B300028460195FFF74EFE01210807FFF7FAFB53
:100B40000120FFF7A5FB0120FFF70CFC0020FFF7B9
:100B500009FC0020FFF730FE0028FAD00020FFF744
:100B60002BFE0028FAD100F031F8FFF703FF012037
:100B7000FFF7DEFD144C01950120FFF70FFE0198F1
:100B80000095401C01900098401C0090A042FAD3B0
:100B900001980428F0D1FFF7ABFE0020FFF7C8FD55
:100BA00001950020FFF7FAFD01980095401C019087
:100BB0000098401C0090A042FAD301980428F0D17C
:100BC000FFF7D0FE00207CBDFFFF0700F8B5002531
:100BD0002846FFF7ADFD0120FFF7AAFD0020FFF733
:100BE000D1FD0120FFF7CEFD0A4C0B4E002700205F
:100BF000FFF7D4FD0120FFF7D1FD27606D1C02E057
:100C00002068401C20602068B042F9D3042DEED14A
:100C1000F8BD000000000020FFFF070001000100F8
:100C200000000000050000020001000000000200BA
:100C30000000080000000800580C00080000002018
:100C400010000000080B0008680C000810000020CD
:100C500000040000180B000800000000000000481D
:080C60000008004800080048EC
:04000005080000C12E
:00000001FF
