:020000040800F2
:1000000020110020D500000851090008150700083C
:1000100000000000000000000000000000000000E0
:100020000000000000000000000000009D0C00081F
:100030000000000000000000150A00082D0D000857
:10004000E7000008E7000008E7000008E7000008F4
:10005000E7000008E7000008E7000008E7000008E4
:10006000E7000008E7000008E7000008E7000008D4
:10007000E7000008E7000008E7000008E7000008C4
:10008000E7000008E700000800000000E7000008A3
:10009000E7000008E7000008E7000008E7000008A4
:1000A000E7000008E7000008E70000082D1000083E
:1000B0006110000800000000E700000800000000D8
:1000C0000348854600F02AF800480047F911000867
:1000D000201100200448804704480047FEE7FEE75F
:1000E000FEE7FEE7FEE7FEE7810D0008C10000081D
:1000F00030B50B46014600202022012409E00D46C0
:10010000D5409D4205D31D469540491B2546954047
:1001100040191546521E002DF1DC30BD064C01255C
:10012000064E05E0E36807CC2B430C3C984710349F
:10013000B442F7D3FFF7C8FFA4130008C4130008A4
:1001400070B58D180478401CA207920F01D1027877
:10015000401C231106D10378401C03E006780E7082
:10016000401C491C521EF9D1002B15D002780C26D8
:100170008A1A3440401C0C2C03D0A401121B9B1C77
:1001800008E004782402121B401CF8E714780C7075
:10019000491C521C5B1EF9D5A942D3D3002070BD67
:1001A00010B506E003780C78A34201D1012010BD00
:1001B000401C1346521E92B2002BF3D1002010BDFA
:1001C00010B50449044800F049FA04490020C880E9
:1001D00010BD0000FE070000080500200000002000
:1001E000F8B51727FE4C00252781FE4E6581FC4897
:1001F00061897230415C304600F0EAFF40213046B0
:1002000000F064FF0028F9D06089401C80B2608152
:1002100021898842EBD94021F34800F079FA03E0C4
:100220007D20C00000F010FA0223F04AF0A1F1484E
:1002300000F035FD0028F3D04021EB4800F066FACD
:100240007D20C00000F000FAE849EA4800F006FA14
:10025000E580262020816581E14861898A30415C02
:10026000304600F0B5FF4021304600F02FFF002857
:10027000F9D06089401C80B2608121898842EBD925
:100280004021D94800F044FA03E07D20C00000F08E
:10029000DBF90223D54AD6A1D64800F000FD00289C
:1002A000F3D04021D04800F031FA7D20C00000F0AA
:1002B000CBF9CE49CF4800F0D1F9E5801C20208150
:1002C0006581C7486189B130415C304600F080FFEC
:1002D0004021304600F0FAFE0028F9D06089401C29
:1002E00080B2608121898842EBD94021BE4800F06C
:1002F0000FFA03E07D20C00000F0A6F90223BB4AFC
:10030000BBA1BC4800F0CBFC0028F3D04021B6488C
:1003100000F0FCF97D20C00000F096F9B349B54823
:1003200000F09CF9E5802781AD4F6581CE3760896B
:10033000395C304600F04CFF4021304600F0C6FEEC
:100340000028F9D06089401C80B2608121898842F0
:10035000EDD94021A44800F0DBF9A44F03E07D2053
:10036000C00000F071F902233A46A1A1A14800F0B3
:1003700096FC0028F3D040219B4800F0C7F97D206F
:10038000C00000F061F999499A4800F067F9E580EA
:100390001920934F20816581E6376089395C3046AA
:1003A00000F016FF4021304600F090FE0028F9D002
:1003B0006089401C80B2608121898842EDD940214A
:1003C000894800F0A5F903E07D20C00000F03CF969
:1003D0000223864A86A1874800F061FC0028F3D0FA
:1003E0004021814800F092F97D20C00000F02CF9F6
:1003F0007E49804800F032F9E5800620784F208160
:10040000658117376089395C304600F0E1FE402194
:10041000304600F05BFE0028F9D06089401C80B2B5
:10042000608121898842EDD96F4F4021384600F024
:100430006FF903E07D20C00000F006F902236B4A4B
:100440006BA16C4800F02BFC0028F3D0402138460B
:1004500000F05CF97D20C00000F0F6F863496548C3
:1004600000F0FCF8E580FF21A5700131384600F06E
:100470004DF90120E070A0700B20208165815E485D
:100480006189415C304600F0A3FE4021304600F017
:100490001DFE0028F9D06089401C80B2608121894E
:1004A0008842ECD97D20C00000F0CEF84F49514879
:1004B00000F0D4F8E58003E07D20C00000F0C4F82F
:1004C00009234A4A4DA14B4800F0E9FB0028F3D02C
:1004D0000121E5704902444800F018F97D20C00070
:1004E00000F0B2F84149434800F0B8F8E580182719
:1004F00027816581404861892130415C304600F0A8
:1005000067FE4021304600F0E1FD0028F9D0608907
:10051000401C80B2608121898842EBD94021324859
:1005200000F0F6F803E07D20C00000F08DF8022313
:100530002E4A2FA12F4800F0B2FB0028F3D0402113
:10054000294800F0E3F87D20C00000F07DF827493D
:10055000284800F083F8E5802781274F65813A37E6
:100560006089395C304600F033FE4021304600F0AF
:10057000ADFD0028F9D06089401C80B260812189DE
:100580008842EDD9D3201C4F208165815337608983
:10059000395C304600F01CFE4021304600F096FDEC
:1005A0000028F9D06089401C80B26081218988428E
:1005B000EDD90D4F4021384600F0AAF80B4E03E06C
:1005C0007D20C00000F040F80223324608A109480F
:1005D00000F065FB0028F3D04021384614E000000D
:1005E000000000200044004000080048FE07000012
:1005F0004F4B000008050020000100203A576946D3
:10060000692055703A00000000F080F87D20C0009D
:1006100000F01AF831460B4800F020F8E58031462A
:10062000084800F01BF8E580E570FF21A570013156
:10063000384600F06BF801214902384600F066F8B0
:100640000120F8BD0805002001B503480099C160EC
:10065000C1680029FCD108BD00000020002213461B
:1006600002E08354521C92B28A42FAD37047F0B52A
:100670000022012423460D6893401D409D422AD14B
:100680000D79012D01D0022D12D187685500032666
:10069000AE40B74387604E79AE4085682E43866092
:1006A00085889D43858085888B7993401D4385800F
:1006B000066855000323AB409E4306600E79076829
:1006C000AE403E430660C6689E43C660CB79AB40F1
:1006D000C5682B43C360521C102ACBD3F0BD4B0717
:1006E000DB0E9A40C90810B589000818016A0F246A
:1006F0009C40A1430162016A1143016210BD0246A0
:10070000128A00200A4200D00120704701857047FC
:1007100081617047FEE70000F8B51420834C002784
:100720002081834D834E67816089295C304600F0CB
:100730004FFD4021304600F0C9FC0028F9D0608907
:10074000401C80B2608121898842EDD97D20C000A3
:10075000FFF77AFF78497948FFF780FFE78018258F
:1007600025816781724861891530415C304600F00F
:100770002FFD4021304600F0A9FC0028F9D0608907
:10078000401C80B2608121898842EBD940216C48AD
:10079000FFF7BEFF03E07D20C000FFF755FF0223F7
:1007A000654A68A1654800F07AFA0028F3D0402134
:1007B0006348FFF7ABFF7D20C000FFF745FF5E49B0
:1007C0005E48FFF74BFFE7802581594D67812E3545
:1007D0006089295C304600F0FBFC4021304600F087
:1007E00075FC0028F9D06089401C80B260812189A5
:1007F0008842EDD92078012837D16078002819D1B6
:10080000D3202081254667814F486989415C304665
:1008100000F0DEFC4021304600F058FC0028F9D002
:100820006889401C80B2688129898842ECD928787F
:1008300001281AD160782546012833D1D320288198
:100840006F8141486989D430415C304600F0C0FC7A
:100850004021304600F03AFC0028F9D06889401C5D
:1008600080B2688129898842EBD92078002819D183
:1008700060782546012815D1D32028816F8133481F
:100880006989415C304600F0A3FC4021304600F00D
:100890001DFC0028F9D06889401C80B26881298934
:1008A0008842ECD920786178084316D1D320204DB6
:1008B0002081678147356089295C304600F088FCDB
:1008C0004021304600F002FC0028F9D06089401C2D
:1008D00080B2608121898842EDD940211848FFF714
:1008E00017FF7D26F600144D02E03046FFF7ACFE00
:1008F00002232A4613A1114800F0D1F90028F4D0B0
:1009000040210F48FFF702FF3046FFF79DFE2946C2
:100910000A48FFF7A3FEE7803046FFF795FE294619
:100920000648FFF79BFEE780F8BD000000000020AE
:100930000C01002000440040FE07000008050020D4
:10094000000800484F4B000027020020CF03002082
:10095000704738B51B21684601700024447001259A
:10096000857000F009F81C2168460170447085709C
:1009700000F002F838BD000030B58378012102781C
:10098000002B15D094080E4BA400E418236892079E
:10099000D50EFF22AA40934342789207120EAA4036
:1009A0001A4322600078C006C00E8140054804E06A
:1009B000D006C00E814003488030016030BD000089
:1009C00000E400E000E100E01CB50121480400F073
:1009D00023F801200090002069460871C8710920A1
:1009E000C006FFF744FE1CBD1CB50121C80400F081
:1009F00013F80D2080010090012069460871002045
:100A0000887103224A71C8710148FFF730FE1CBD8E
:100A10000008004870470000044A0029516901D0CD
:100A2000014300E081435161704700000010024023
:100A3000044A0029D16901D0014300E08143D1611A
:100A40007047000000100240044A0029916901D05B
:100A5000014300E0814391617047000000100240B3
:100A6000F8B5334D044668680C21324E084003D077
:100A7000042801D0082801D0266012E0696868685F
:100A80000122890212040F0F1040BF1C00281CD045
:100A9000E86A0107090F3046491CFFF729FB784334
:100AA00020606868244B0006000F1A5C206801462D
:100AB000D14061606A685205520F9A5CD140A160D2
:100AC0002A6BD20505D41D4A09E01D48474327601B
:100AD000E7E76A68520401D44A0800E08A08E26045
:100AE0002A6B5306174A03D4164B1233236100E0D6
:100AF00022612B6BDB0601D4666100E060612B6B29
:100B00009B070FD0296B8907890F01290CD0286B0F
:100B10008007800F022809D0286BC043800700D1CE
:100B2000A661F8BDA161F8BDA061F8BDA261F8BDE4
:100B30000010024000127A00AA040020809FD50015
:100B400000093D000080000070B50F4C25786678E4
:100B5000FFF746FB7D200001FFF776FDFFF730FB36
:100B60000020A070FF2101310848FFF7CFFD25705C
:100B70006670FFF7D1FD7D20C000FFF765FDFFF730
:100B80001FFB0120E07070BD00000020000800483D
:100B9000F3B50546840023492248091D0059095927
:100BA00083B008430121FFF737FF1E480121001FD2
:100BB0000059FFF749FF1B486D000838425D001FD0
:100BC000194E415B3059FFF78AFD1648371D801FCB
:100BD000425D001F415B3859FFF781FD114802213A
:100BE0001038405B0090684601710321417100217B
:100BF00081710121C17130596946FFF738FD0948FB
:100C000069460E38405B00903859FFF730FD351FBC
:100C10002859049900F092FA2859012100F04CFA61
:100C200005B0F0BD20130008D40400207CB50121DC
:100C300004464D042846FFF7EFFE01212846FFF742
:100C4000F7FE0925ED06012202212846FFF747FDA0
:100C5000012203212846FFF742FD042000900221D3
:100C60006846017103214171002181710121C17127
:100C700069462846FFF7FBFC082000906946284695
:100C8000FFF7F5FC2146044C204600F057FA0121FD
:100C9000204600F011FA7CBD004400407047F0B5DA
:100CA00000240D460EE006780F78BE4207D1641C82
:100CB000A4B2401C491C9C4204D10120F0BD002478
:100CC0002946401C1646521E92B2002EEBD100203F
:100CD000F0BD0000134911200860134841684160CD
:100CE0004168416041683F2212049143416041687C
:100CF0000522D2041143416001680122120611430A
:100D0000016001688901FCD541688908890041605A
:100D1000416802221143416041680907890F022995
:100D2000FAD17047002002400010024010B500F0D8
:100D300073F90F49FF220888F532401C80B2088001
:100D4000904214D30B4802780B48012A04D1828ABE
:100D5000FF2301335A408282084A1278012A04D1C3
:100D6000828A01235B025A4082820020088010BDE3
:100D7000A804002002000020000800480300002012
:100D800010B5144801680122114301604168124AFC
:100D9000114041600168114A11400160016801225F
:100DA00092049143016041683F22120491434160E3
:100DB000C16A09090901C162016BFF2254329143E2
:100DC0000163416B49084900416300218160FFF7DD
:100DD00081FF10BD001002400CB8FFF8FFFFF6FEC7
:100DE000F8B57E4F11233A467D497E48FFF757FFFD
:100DF0007B4C01257C4E1E3C00280BD069023046FE
:100E0000FFF784FC29023046FFF780FCA570E570EF
:100E1000FFF79AFE724911233A4612317148FFF7E3
:100E20003EFF00280DD0012149023046FFF76EFC3D
:100E3000FF2101313046FFF769FCA570E570FFF72F
:100E400083FE674910233A4624316648FFF727FF9F
:100E500000280DD0012149023046FFF757FCFF2141
:100E600001313046FFF752FCA570E570FFF76CFECC
:100E70005B491E233A4635315A48FFF710FF0028D8
:100E80000DD0012149023046FFF740FCFF2101311E
:100E90003046FFF73BFCA570E570FFF755FE504963
:100EA00006233A460E394F48FFF7F9FE00280DD0C9
:100EB000012149023046FFF729FCFF21013130466C
:100EC000FFF724FCA570E570FFF73EFE3A4647A108
:100ED0004448FFF765F9002807D0FFF771F97D2036
:100EE000C000FFF7B1FBFFF76BF905233B4A40A1B8
:100EF0003C48FFF7D4FE002700280ED0012149020C
:100F00003046FFF703FCFF21277001313046FFF721
:100F1000FDFB6770A570FFF763F904232F4A36A124
:100F20003048FFF7BCFE00280FD0012149023046AF
:100F3000FFF7EEFB2570FFF743F9FFF7EDFB7D2090
:100F4000C000FFF781FBFFF73BF90523234A2CA1E3
:100F50002448FFF7A4FE00280FD0012149023046A3
:100F6000FFF7D4FB2770FFF72BF9FFF7D5FB7D20A8
:100F7000C000FFF769FBFFF723F90423174A22A1FA
:100F80001848FFF78CFE00280FD0FF2101313046B2
:100F9000FFF7BEFB6570FFF713F9FFF7BDFB7D2080
:100FA000C000FFF751FBFFF70BF905230B4A18A10F
:100FB0000C48FFF774FE00280FD0FF2101313046A6
:100FC000FFF7A4FB6770FFF7FBF8FFF7A5FB7D2099
:100FD000C000FFF739FBFFF7F3F8F8BDFE0700008C
:100FE0001E000020080500200008004858000000EE
:100FF00072657365740000006C676F6E000000001E
:101000006C676F66660000006C626F6E0000000027
:101010006C626F66660000000348C168002902D058
:10102000C168491EC16070470000002010B5094C1E
:101030000749204600F051F8002804D0204600F06F
:10104000C3F8054908800549204600F046F810BD60
:101050000501050000380140A40400200701070035
:1010600010B50F4C0D49204600F037F8002810D07D
:10107000204600F0A9F80B490B4B08800B490A8861
:101080009854521C90B20A4A0880904201D1002024
:1010900008800849204600F020F810BD0501050031
:1010A00000440040A604002008050020060000209F
:1010B000FE070000070107000029016802D0012295
:1010C000114301E049084900016070470246D269B6
:1010D00000200A4200D00120704730B50A04130EE8
:1010E0000122144600258C40012B0ED0022B0ED07D
:1010F0008368090C2340C0698A401040002B02D04D
:10110000002800D00125284630BD0368F1E7436878
:10111000EFE710B50B041C0E01238B40022C02D00C
:10112000032C02D002E0001D00E008300168002A14
:1011300001D0194300E09943016010BD30B5044669
:10114000006887B00D4640084000206060680321B9
:1011500009038843A9680143616020681749EA6868
:101160000840696811432A69024311432160A0685D
:1011700003210902884369690143A1606846FFF7BA
:101180006FFC0F48844201D1069800E00298216864
:101190000904296800D54000FEF7AAFF2A68520812
:1011A0008A4200D8401C2168090404D50107054A79
:1011B000490F10400843A08107B030BDF3E9FFFF9D
:1011C00000380140F0FF0000808CC005C00D704762
:1011D000C905C90D0185704702E008C8121F08C182
:1011E000002AFAD170477047002001E001C1121FA8
:1011F000002AFBD170470000FFF7E6FBFFF7F4FB86
:1012000037487D21C9000068FEF772FF3549002587
:10121000401E88420BD83449486134480722C369CC
:101220001B021B0A4C042343C3618D610A61FFF753
:1012300090FBE1212E48490222C0056045600C2147
:10124000C56081602A490020FFF7A2FC2848FFF70B
:10125000EDFC284C012221462748FFF75AFF0122C6
:1012600021462648FFF755FF09200121C006FFF758
:1012700046FA234C2349207160712348FFF7EEF9A9
:1012800025706570A570214EE570012709200121A8
:10129000C006FFF734FA20716179814215D0607180
:1012A000002812D1012149023046FFF72FFAFF2111
:1012B00001313046FFF72AFA25706570E570A77096
:1012C000FEF78EFF012803D0E770FFF789FDDDE709
:1012D000FF21A57001313046FFF718FAF5E700004D
:1012E000BC040020FFFFFF0000E000E004ED00E090
:1012F000080D0020050105000038014000440040B1
:1013000000000020FE07000008050020000800483B
:101310000002000409000A00010001000040000072
:101320000000020000000200000400080010040099
:101330000000080000000800000008000000100085
:1013400000200001000100024000800001000000B8
:101350000000080000000400000008000000080071
:10136000000008000000080000000200002000014A
:1013700000010002400080000100020001000200A4
:1013800002000200020000000D0008000800090031
:10139000060007000000070007000700070007001D
:1013A00007000500C4130008000000200805000025
:1013B000400100089015000808050020180C0000E6
:1013C000E8110008D2000160204552524F523A0005
:1013D000617426770A0D002B57494E443A34323A4D
:1013E00052585F4D474D543A122233127005444112
:1013F0005441122234246004554E4B2320183334B8
:101400003A5769466920556E68616E646C65642060
:101410004576656E745B10142B732E737369647458
:1014200078743D70616B697374616E6C4118001F54
:10143000106366673D776966695F7770615F707397
:101440006B5F746578742C75736D616E616C692760
:10145000000C10707269765F6D6F64652C321D31FF
:1014600018B23118600C69705F7573655F646863EA
:10147000701A40096366756E3D310D0A26100666C6
:1014800073643D2FAF60062E68746D6C3B800466FC
:1014900073631570042C31396CF004667361192282
:1014A0003C2510123E3C686561643E3C6D6574618C
:1014B00020636F6E74FC20053D271227CF222F2159
:1014C00020253B20636861727365743D49534F2D3D
:1014D000383835392D310078323220687474702DE7
:1014E00065717569763D10513C20062D74797065E3
:1014F00010300D3E3C7469746C653E4C6564738FAE
:10150000433C2F11433C2F721014626F64793E20CC
:101510003C68313E55534D414E20414C491B1231E0
:10152000191009723E477265656E5F3B200920699C
:1015300073204F464620159005426C7565142113A3
:10154000333C2F46323CAA163E1B01A7D403E44E7F
:1015500020D403BC4E20D409127C0115D49D9E04D6
:10156000200501020304041C0506070809AD04A0B8
:10157000046CDC021A311610043801401A32480497
:10158000920804520C10D2041842082C00000000EB
:04000005080000C12E
:00000001FF
